{
  "_format": "hh-sol-artifact-1",
  "contractName": "SuperTokens",
  "sourceName": "contracts/SuperTokens.sol",
  "abi": [
    {
      "inputs": [],
      "stateMutability": "nonpayable",
      "type": "constructor"
    },
    {
      "anonymous": false,
      "inputs": [
        {
          "indexed": true,
          "internalType": "address",
          "name": "owner",
          "type": "address"
        },
        {
          "indexed": true,
          "internalType": "address",
          "name": "approved",
          "type": "address"
        },
        {
          "indexed": true,
          "internalType": "uint256",
          "name": "tokenId",
          "type": "uint256"
        }
      ],
      "name": "Approval",
      "type": "event"
    },
    {
      "anonymous": false,
      "inputs": [
        {
          "indexed": true,
          "internalType": "address",
          "name": "owner",
          "type": "address"
        },
        {
          "indexed": true,
          "internalType": "address",
          "name": "operator",
          "type": "address"
        },
        {
          "indexed": false,
          "internalType": "bool",
          "name": "approved",
          "type": "bool"
        }
      ],
      "name": "ApprovalForAll",
      "type": "event"
    },
    {
      "anonymous": false,
      "inputs": [
        {
          "indexed": true,
          "internalType": "address",
          "name": "previousOwner",
          "type": "address"
        },
        {
          "indexed": true,
          "internalType": "address",
          "name": "newOwner",
          "type": "address"
        }
      ],
      "name": "OwnershipTransferred",
      "type": "event"
    },
    {
      "anonymous": false,
      "inputs": [
        {
          "indexed": true,
          "internalType": "address",
          "name": "from",
          "type": "address"
        },
        {
          "indexed": true,
          "internalType": "address",
          "name": "to",
          "type": "address"
        },
        {
          "indexed": true,
          "internalType": "uint256",
          "name": "tokenId",
          "type": "uint256"
        }
      ],
      "name": "Transfer",
      "type": "event"
    },
    {
      "inputs": [
        {
          "internalType": "uint256",
          "name": "tokenId",
          "type": "uint256"
        },
        {
          "internalType": "string",
          "name": "content",
          "type": "string"
        }
      ],
      "name": "addComment",
      "outputs": [],
      "stateMutability": "nonpayable",
      "type": "function"
    },
    {
      "inputs": [
        {
          "internalType": "uint256",
          "name": "tokenId",
          "type": "uint256"
        },
        {
          "internalType": "uint256",
          "name": "reactionId",
          "type": "uint256"
        }
      ],
      "name": "addReaction",
      "outputs": [],
      "stateMutability": "nonpayable",
      "type": "function"
    },
    {
      "inputs": [
        {
          "internalType": "address",
          "name": "to",
          "type": "address"
        },
        {
          "internalType": "uint256",
          "name": "tokenId",
          "type": "uint256"
        }
      ],
      "name": "approve",
      "outputs": [],
      "stateMutability": "nonpayable",
      "type": "function"
    },
    {
      "inputs": [
        {
          "internalType": "address",
          "name": "owner",
          "type": "address"
        }
      ],
      "name": "balanceOf",
      "outputs": [
        {
          "internalType": "uint256",
          "name": "",
          "type": "uint256"
        }
      ],
      "stateMutability": "view",
      "type": "function"
    },
    {
      "inputs": [
        {
          "internalType": "uint256",
          "name": "tokenId",
          "type": "uint256"
        }
      ],
      "name": "getApproved",
      "outputs": [
        {
          "internalType": "address",
          "name": "",
          "type": "address"
        }
      ],
      "stateMutability": "view",
      "type": "function"
    },
    {
      "inputs": [
        {
          "internalType": "uint256",
          "name": "_tokenId",
          "type": "uint256"
        }
      ],
      "name": "getComment",
      "outputs": [
        {
          "components": [
            {
              "internalType": "address",
              "name": "sender",
              "type": "address"
            },
            {
              "internalType": "string",
              "name": "content",
              "type": "string"
            }
          ],
          "internalType": "struct SuperTokens.Comment[]",
          "name": "",
          "type": "tuple[]"
        }
      ],
      "stateMutability": "view",
      "type": "function"
    },
    {
      "inputs": [
        {
          "internalType": "uint256",
          "name": "_tokenId",
          "type": "uint256"
        }
      ],
      "name": "getToken",
      "outputs": [
        {
          "internalType": "string",
          "name": "_tokenURI",
          "type": "string"
        },
        {
          "internalType": "address",
          "name": "owner",
          "type": "address"
        },
        {
          "internalType": "uint256",
          "name": "likeCount",
          "type": "uint256"
        },
        {
          "internalType": "uint256",
          "name": "happyCount",
          "type": "uint256"
        },
        {
          "internalType": "uint256",
          "name": "angryCount",
          "type": "uint256"
        }
      ],
      "stateMutability": "view",
      "type": "function"
    },
    {
      "inputs": [
        {
          "internalType": "address",
          "name": "owner",
          "type": "address"
        },
        {
          "internalType": "address",
          "name": "operator",
          "type": "address"
        }
      ],
      "name": "isApprovedForAll",
      "outputs": [
        {
          "internalType": "bool",
          "name": "",
          "type": "bool"
        }
      ],
      "stateMutability": "view",
      "type": "function"
    },
    {
      "inputs": [
        {
          "internalType": "string",
          "name": "_tokenURI",
          "type": "string"
        }
      ],
      "name": "mintCharacter",
      "outputs": [],
      "stateMutability": "nonpayable",
      "type": "function"
    },
    {
      "inputs": [],
      "name": "name",
      "outputs": [
        {
          "internalType": "string",
          "name": "",
          "type": "string"
        }
      ],
      "stateMutability": "view",
      "type": "function"
    },
    {
      "inputs": [],
      "name": "owner",
      "outputs": [
        {
          "internalType": "address",
          "name": "",
          "type": "address"
        }
      ],
      "stateMutability": "view",
      "type": "function"
    },
    {
      "inputs": [
        {
          "internalType": "uint256",
          "name": "tokenId",
          "type": "uint256"
        }
      ],
      "name": "ownerOf",
      "outputs": [
        {
          "internalType": "address",
          "name": "",
          "type": "address"
        }
      ],
      "stateMutability": "view",
      "type": "function"
    },
    {
      "inputs": [],
      "name": "renounceOwnership",
      "outputs": [],
      "stateMutability": "nonpayable",
      "type": "function"
    },
    {
      "inputs": [
        {
          "internalType": "address",
          "name": "from",
          "type": "address"
        },
        {
          "internalType": "address",
          "name": "to",
          "type": "address"
        },
        {
          "internalType": "uint256",
          "name": "tokenId",
          "type": "uint256"
        }
      ],
      "name": "safeTransferFrom",
      "outputs": [],
      "stateMutability": "nonpayable",
      "type": "function"
    },
    {
      "inputs": [
        {
          "internalType": "address",
          "name": "from",
          "type": "address"
        },
        {
          "internalType": "address",
          "name": "to",
          "type": "address"
        },
        {
          "internalType": "uint256",
          "name": "tokenId",
          "type": "uint256"
        },
        {
          "internalType": "bytes",
          "name": "_data",
          "type": "bytes"
        }
      ],
      "name": "safeTransferFrom",
      "outputs": [],
      "stateMutability": "nonpayable",
      "type": "function"
    },
    {
      "inputs": [
        {
          "internalType": "address",
          "name": "operator",
          "type": "address"
        },
        {
          "internalType": "bool",
          "name": "approved",
          "type": "bool"
        }
      ],
      "name": "setApprovalForAll",
      "outputs": [],
      "stateMutability": "nonpayable",
      "type": "function"
    },
    {
      "inputs": [
        {
          "internalType": "bytes4",
          "name": "interfaceId",
          "type": "bytes4"
        }
      ],
      "name": "supportsInterface",
      "outputs": [
        {
          "internalType": "bool",
          "name": "",
          "type": "bool"
        }
      ],
      "stateMutability": "view",
      "type": "function"
    },
    {
      "inputs": [],
      "name": "symbol",
      "outputs": [
        {
          "internalType": "string",
          "name": "",
          "type": "string"
        }
      ],
      "stateMutability": "view",
      "type": "function"
    },
    {
      "inputs": [
        {
          "internalType": "uint256",
          "name": "index",
          "type": "uint256"
        }
      ],
      "name": "tokenByIndex",
      "outputs": [
        {
          "internalType": "uint256",
          "name": "",
          "type": "uint256"
        }
      ],
      "stateMutability": "view",
      "type": "function"
    },
    {
      "inputs": [
        {
          "internalType": "address",
          "name": "owner",
          "type": "address"
        },
        {
          "internalType": "uint256",
          "name": "index",
          "type": "uint256"
        }
      ],
      "name": "tokenOfOwnerByIndex",
      "outputs": [
        {
          "internalType": "uint256",
          "name": "",
          "type": "uint256"
        }
      ],
      "stateMutability": "view",
      "type": "function"
    },
    {
      "inputs": [
        {
          "internalType": "uint256",
          "name": "tokenId",
          "type": "uint256"
        }
      ],
      "name": "tokenURI",
      "outputs": [
        {
          "internalType": "string",
          "name": "",
          "type": "string"
        }
      ],
      "stateMutability": "view",
      "type": "function"
    },
    {
      "inputs": [],
      "name": "totalSupply",
      "outputs": [
        {
          "internalType": "uint256",
          "name": "",
          "type": "uint256"
        }
      ],
      "stateMutability": "view",
      "type": "function"
    },
    {
      "inputs": [
        {
          "internalType": "address",
          "name": "from",
          "type": "address"
        },
        {
          "internalType": "address",
          "name": "to",
          "type": "address"
        },
        {
          "internalType": "uint256",
          "name": "tokenId",
          "type": "uint256"
        }
      ],
      "name": "transferFrom",
      "outputs": [],
      "stateMutability": "nonpayable",
      "type": "function"
    },
    {
      "inputs": [
        {
          "internalType": "address",
          "name": "newOwner",
          "type": "address"
        }
      ],
      "name": "transferOwnership",
      "outputs": [],
      "stateMutability": "nonpayable",
      "type": "function"
    },
    {
      "inputs": [
        {
          "internalType": "uint256",
          "name": "_tokenId",
          "type": "uint256"
        }
      ],
      "name": "whichReaction",
      "outputs": [
        {
          "internalType": "uint256",
          "name": "",
          "type": "uint256"
        }
      ],
      "stateMutability": "view",
      "type": "function"
    }
  ],
  "bytecode": "0x60806040523480156200001157600080fd5b506040518060400160405280600c81526020017f537570657220546f6b656e7300000000000000000000000000000000000000008152506040518060400160405280600381526020017f5355540000000000000000000000000000000000000000000000000000000000815250816000908051906020019062000096929190620001a6565b508060019080519060200190620000af929190620001a6565b505050620000d2620000c6620000d860201b60201c565b620000e060201b60201c565b620002bb565b600033905090565b6000600b60009054906101000a900473ffffffffffffffffffffffffffffffffffffffff16905081600b60006101000a81548173ffffffffffffffffffffffffffffffffffffffff021916908373ffffffffffffffffffffffffffffffffffffffff1602179055508173ffffffffffffffffffffffffffffffffffffffff168173ffffffffffffffffffffffffffffffffffffffff167f8be0079c531659141344cd1fd0a4f28419497f9722a3daafe3b4186f6b6457e060405160405180910390a35050565b828054620001b49062000256565b90600052602060002090601f016020900481019282620001d8576000855562000224565b82601f10620001f357805160ff191683800117855562000224565b8280016001018555821562000224579182015b828111156200022357825182559160200191906001019062000206565b5b50905062000233919062000237565b5090565b5b808211156200025257600081600090555060010162000238565b5090565b600060028204905060018216806200026f57607f821691505b602082108114156200028657620002856200028c565b5b50919050565b7f4e487b7100000000000000000000000000000000000000000000000000000000600052602260045260246000fd5b6145f380620002cb6000396000f3fe608060405234801561001057600080fd5b50600436106101735760003560e01c806370a08231116100de578063aa7e568311610097578063d0b2acd711610071578063d0b2acd71461046e578063e4b50cb81461048a578063e985e9c5146104be578063f2fde38b146104ee57610173565b8063aa7e568314610406578063b88d4fde14610422578063c87b56dd1461043e57610173565b806370a0823114610344578063715018a614610374578063894448071461037e5780638da5cb5b146103ae57806395d89b41146103cc578063a22cb465146103ea57610173565b806323b872dd1161013057806323b872dd146102605780632b1d50391461027c5780632f745c591461029857806342842e0e146102c85780634f6ccce7146102e45780636352211e1461031457610173565b806301ffc9a71461017857806306fdde03146101a85780630800e300146101c6578063081812fc146101f6578063095ea7b31461022657806318160ddd14610242575b600080fd5b610192600480360381019061018d9190613025565b61050a565b60405161019f9190613748565b60405180910390f35b6101b061051c565b6040516101bd9190613763565b60405180910390f35b6101e060048036038101906101db91906130b8565b6105ae565b6040516101ed9190613726565b60405180910390f35b610210600480360381019061020b91906130b8565b610845565b60405161021d91906136bf565b60405180910390f35b610240600480360381019061023b9190612fe9565b6108ca565b005b61024a6109e2565b6040516102579190613adf565b60405180910390f35b61027a60048036038101906102759190612ee3565b6109ef565b005b61029660048036038101906102919190613077565b610a4f565b005b6102b260048036038101906102ad9190612fe9565b610b2c565b6040516102bf9190613adf565b60405180910390f35b6102e260048036038101906102dd9190612ee3565b610bd1565b005b6102fe60048036038101906102f991906130b8565b610bf1565b60405161030b9190613adf565b60405180910390f35b61032e600480360381019061032991906130b8565b610c88565b60405161033b91906136bf565b60405180910390f35b61035e60048036038101906103599190612e7e565b610d3a565b60405161036b9190613adf565b60405180910390f35b61037c610df2565b005b610398600480360381019061039391906130b8565b610e7a565b6040516103a59190613adf565b60405180910390f35b6103b6610f1f565b6040516103c391906136bf565b60405180910390f35b6103d4610f49565b6040516103e19190613763565b60405180910390f35b61040460048036038101906103ff9190612fad565b610fdb565b005b610420600480360381019061041b91906130e1565b610ff1565b005b61043c60048036038101906104379190612f32565b61118c565b005b610458600480360381019061045391906130b8565b6111ee565b6040516104659190613763565b60405180910390f35b61048860048036038101906104839190613139565b611200565b005b6104a4600480360381019061049f91906130b8565b611424565b6040516104b5959493929190613785565b60405180910390f35b6104d860048036038101906104d39190612ea7565b6114b5565b6040516104e59190613748565b60405180910390f35b61050860048036038101906105039190612e7e565b611549565b005b600061051582611641565b9050919050565b60606000805461052b90613d7f565b80601f016020809104026020016040519081016040528092919081815260200182805461055790613d7f565b80156105a45780601f10610579576101008083540402835291602001916105a4565b820191906000526020600020905b81548152906001019060200180831161058757829003601f168201915b5050505050905090565b60606000600f60008481526020019081526020016000206040518060a001604052908160008201548152602001600182015481526020016002820154815260200160038201548152602001600482015481525050905060008160800151905060008167ffffffffffffffff81111561064f577f4e487b7100000000000000000000000000000000000000000000000000000000600052604160045260246000fd5b60405190808252806020026020018201604052801561068857816020015b610675612c28565b81526020019060019003908161066d5790505b50905060005b8281101561083957600e600087815260200190815260200160002081815481106106e1577f4e487b7100000000000000000000000000000000000000000000000000000000600052603260045260246000fd5b90600052602060002090600202016040518060400160405290816000820160009054906101000a900473ffffffffffffffffffffffffffffffffffffffff1673ffffffffffffffffffffffffffffffffffffffff1673ffffffffffffffffffffffffffffffffffffffff16815260200160018201805461076090613d7f565b80601f016020809104026020016040519081016040528092919081815260200182805461078c90613d7f565b80156107d95780601f106107ae576101008083540402835291602001916107d9565b820191906000526020600020905b8154815290600101906020018083116107bc57829003601f168201915b50505050508152505082828151811061081b577f4e487b7100000000000000000000000000000000000000000000000000000000600052603260045260246000fd5b6020026020010181905250808061083190613de2565b91505061068e565b50809350505050919050565b6000610850826116bb565b61088f576040517f08c379a0000000000000000000000000000000000000000000000000000000008152600401610886906139df565b60405180910390fd5b6004600083815260200190815260200160002060009054906101000a900473ffffffffffffffffffffffffffffffffffffffff169050919050565b60006108d582610c88565b90508073ffffffffffffffffffffffffffffffffffffffff168373ffffffffffffffffffffffffffffffffffffffff161415610946576040517f08c379a000000000000000000000000000000000000000000000000000000000815260040161093d90613a7f565b60405180910390fd5b8073ffffffffffffffffffffffffffffffffffffffff16610965611727565b73ffffffffffffffffffffffffffffffffffffffff16148061099457506109938161098e611727565b6114b5565b5b6109d3576040517f08c379a00000000000000000000000000000000000000000000000000000000081526004016109ca906138ff565b60405180910390fd5b6109dd838361172f565b505050565b6000600880549050905090565b610a006109fa611727565b826117e8565b610a3f576040517f08c379a0000000000000000000000000000000000000000000000000000000008152600401610a3690613a9f565b60405180910390fd5b610a4a8383836118c6565b505050565b6007815111610a93576040517f08c379a0000000000000000000000000000000000000000000000000000000008152600401610a8a906137df565b60405180910390fd5b6000610a9f600c611b2d565b9050610aab8282611b3b565b6040518060a001604052808281526020016000815260200160008152602001600081526020016000815250600f60008381526020019081526020016000206000820151816000015560208201518160010155604082015181600201556060820151816003015560808201518160040155905050610b28600c611b53565b5050565b6000610b3783610d3a565b8210610b78576040517f08c379a0000000000000000000000000000000000000000000000000000000008152600401610b6f906137ff565b60405180910390fd5b600660008473ffffffffffffffffffffffffffffffffffffffff1673ffffffffffffffffffffffffffffffffffffffff168152602001908152602001600020600083815260200190815260200160002054905092915050565b610bec8383836040518060200160405280600081525061118c565b505050565b6000610bfb6109e2565b8210610c3c576040517f08c379a0000000000000000000000000000000000000000000000000000000008152600401610c3390613abf565b60405180910390fd5b60088281548110610c76577f4e487b7100000000000000000000000000000000000000000000000000000000600052603260045260246000fd5b90600052602060002001549050919050565b6000806002600084815260200190815260200160002060009054906101000a900473ffffffffffffffffffffffffffffffffffffffff169050600073ffffffffffffffffffffffffffffffffffffffff168173ffffffffffffffffffffffffffffffffffffffff161415610d31576040517f08c379a0000000000000000000000000000000000000000000000000000000008152600401610d289061393f565b60405180910390fd5b80915050919050565b60008073ffffffffffffffffffffffffffffffffffffffff168273ffffffffffffffffffffffffffffffffffffffff161415610dab576040517f08c379a0000000000000000000000000000000000000000000000000000000008152600401610da29061391f565b60405180910390fd5b600360008373ffffffffffffffffffffffffffffffffffffffff1673ffffffffffffffffffffffffffffffffffffffff168152602001908152602001600020549050919050565b610dfa611727565b73ffffffffffffffffffffffffffffffffffffffff16610e18610f1f565b73ffffffffffffffffffffffffffffffffffffffff1614610e6e576040517f08c379a0000000000000000000000000000000000000000000000000000000008152600401610e65906139ff565b60405180910390fd5b610e786000611b69565b565b6000610e86600c611b2d565b8210610ec7576040517f08c379a0000000000000000000000000000000000000000000000000000000008152600401610ebe9061397f565b60405180910390fd5b600d600083815260200190815260200160002060003373ffffffffffffffffffffffffffffffffffffffff1673ffffffffffffffffffffffffffffffffffffffff168152602001908152602001600020549050919050565b6000600b60009054906101000a900473ffffffffffffffffffffffffffffffffffffffff16905090565b606060018054610f5890613d7f565b80601f0160208091040260200160405190810160405280929190818152602001828054610f8490613d7f565b8015610fd15780601f10610fa657610100808354040283529160200191610fd1565b820191906000526020600020905b815481529060010190602001808311610fb457829003601f168201915b5050505050905090565b610fed610fe6611727565b8383611c2f565b5050565b610ffb600c611b2d565b831061103c576040517f08c379a00000000000000000000000000000000000000000000000000000000081526004016110339061397f565b60405180910390fd5b6000600f60008581526020019081526020016000209050600060405180604001604052803373ffffffffffffffffffffffffffffffffffffffff16815260200185858080601f016020809104026020016040519081016040528093929190818152602001838380828437600081840152601f19601f820116905080830192505050505050508152509050600e600086815260200190815260200160002081908060018154018082558091505060019003906000526020600020906002020160009091909190915060008201518160000160006101000a81548173ffffffffffffffffffffffffffffffffffffffff021916908373ffffffffffffffffffffffffffffffffffffffff1602179055506020820151816001019080519060200190611166929190612c58565b505050600182600401600082825461117e9190613c0e565b925050819055505050505050565b61119d611197611727565b836117e8565b6111dc576040517f08c379a00000000000000000000000000000000000000000000000000000000081526004016111d390613a9f565b60405180910390fd5b6111e884848484611d9c565b50505050565b60606111f982611df8565b9050919050565b600181148061120f5750600281145b8061121a5750600381145b611259576040517f08c379a000000000000000000000000000000000000000000000000000000000815260040161125090613a1f565b60405180910390fd5b611263600c611b2d565b82106112a4576040517f08c379a000000000000000000000000000000000000000000000000000000000815260040161129b9061397f565b60405180910390fd5b6000600d600084815260200190815260200160002060003373ffffffffffffffffffffffffffffffffffffffff1673ffffffffffffffffffffffffffffffffffffffff1681526020019081526020016000205414611337576040517f08c379a000000000000000000000000000000000000000000000000000000000815260040161132e90613a5f565b60405180910390fd5b6000600f60008481526020019081526020016000209050600182141561137857600181600101600082825461136c9190613c0e565b925050819055506113ca565b60028214156113a25760018160020160008282546113969190613c0e565b925050819055506113c9565b60038214156113c85760018160030160008282546113c09190613c0e565b925050819055505b5b5b81600d600085815260200190815260200160002060003373ffffffffffffffffffffffffffffffffffffffff1673ffffffffffffffffffffffffffffffffffffffff16815260200190815260200160002081905550505050565b60606000806000806000600f60008881526020019081526020016000206040518060a001604052908160008201548152602001600182015481526020016002820154815260200160038201548152602001600482015481525050905080602001519350806040015192508060600151915061149e876111ee565b95506114a987610c88565b94505091939590929450565b6000600560008473ffffffffffffffffffffffffffffffffffffffff1673ffffffffffffffffffffffffffffffffffffffff16815260200190815260200160002060008373ffffffffffffffffffffffffffffffffffffffff1673ffffffffffffffffffffffffffffffffffffffff16815260200190815260200160002060009054906101000a900460ff16905092915050565b611551611727565b73ffffffffffffffffffffffffffffffffffffffff1661156f610f1f565b73ffffffffffffffffffffffffffffffffffffffff16146115c5576040517f08c379a00000000000000000000000000000000000000000000000000000000081526004016115bc906139ff565b60405180910390fd5b600073ffffffffffffffffffffffffffffffffffffffff168173ffffffffffffffffffffffffffffffffffffffff161415611635576040517f08c379a000000000000000000000000000000000000000000000000000000000815260040161162c9061383f565b60405180910390fd5b61163e81611b69565b50565b60007f780e9d63000000000000000000000000000000000000000000000000000000007bffffffffffffffffffffffffffffffffffffffffffffffffffffffff1916827bffffffffffffffffffffffffffffffffffffffffffffffffffffffff191614806116b457506116b382611f4a565b5b9050919050565b60008073ffffffffffffffffffffffffffffffffffffffff166002600084815260200190815260200160002060009054906101000a900473ffffffffffffffffffffffffffffffffffffffff1673ffffffffffffffffffffffffffffffffffffffff1614159050919050565b600033905090565b816004600083815260200190815260200160002060006101000a81548173ffffffffffffffffffffffffffffffffffffffff021916908373ffffffffffffffffffffffffffffffffffffffff160217905550808273ffffffffffffffffffffffffffffffffffffffff166117a283610c88565b73ffffffffffffffffffffffffffffffffffffffff167f8c5be1e5ebec7d5bd14f71427d1e84f3dd0314c0f7b2291e5b200ac8c7c3b92560405160405180910390a45050565b60006117f3826116bb565b611832576040517f08c379a0000000000000000000000000000000000000000000000000000000008152600401611829906138df565b60405180910390fd5b600061183d83610c88565b90508073ffffffffffffffffffffffffffffffffffffffff168473ffffffffffffffffffffffffffffffffffffffff16148061187f575061187e81856114b5565b5b806118bd57508373ffffffffffffffffffffffffffffffffffffffff166118a584610845565b73ffffffffffffffffffffffffffffffffffffffff16145b91505092915050565b8273ffffffffffffffffffffffffffffffffffffffff166118e682610c88565b73ffffffffffffffffffffffffffffffffffffffff161461193c576040517f08c379a00000000000000000000000000000000000000000000000000000000081526004016119339061385f565b60405180910390fd5b600073ffffffffffffffffffffffffffffffffffffffff168273ffffffffffffffffffffffffffffffffffffffff1614156119ac576040517f08c379a00000000000000000000000000000000000000000000000000000000081526004016119a39061389f565b60405180910390fd5b6119b783838361202c565b6119c260008261172f565b6001600360008573ffffffffffffffffffffffffffffffffffffffff1673ffffffffffffffffffffffffffffffffffffffff1681526020019081526020016000206000828254611a129190613c95565b925050819055506001600360008473ffffffffffffffffffffffffffffffffffffffff1673ffffffffffffffffffffffffffffffffffffffff1681526020019081526020016000206000828254611a699190613c0e565b92505081905550816002600083815260200190815260200160002060006101000a81548173ffffffffffffffffffffffffffffffffffffffff021916908373ffffffffffffffffffffffffffffffffffffffff160217905550808273ffffffffffffffffffffffffffffffffffffffff168473ffffffffffffffffffffffffffffffffffffffff167fddf252ad1be2c89b69c2b068fc378daa952ba7f163c4a11628f55a4df523b3ef60405160405180910390a4611b2883838361203c565b505050565b600081600001549050919050565b611b453382612041565b611b4f818361205f565b5050565b6001816000016000828254019250508190555050565b6000600b60009054906101000a900473ffffffffffffffffffffffffffffffffffffffff16905081600b60006101000a81548173ffffffffffffffffffffffffffffffffffffffff021916908373ffffffffffffffffffffffffffffffffffffffff1602179055508173ffffffffffffffffffffffffffffffffffffffff168173ffffffffffffffffffffffffffffffffffffffff167f8be0079c531659141344cd1fd0a4f28419497f9722a3daafe3b4186f6b6457e060405160405180910390a35050565b8173ffffffffffffffffffffffffffffffffffffffff168373ffffffffffffffffffffffffffffffffffffffff161415611c9e576040517f08c379a0000000000000000000000000000000000000000000000000000000008152600401611c95906138bf565b60405180910390fd5b80600560008573ffffffffffffffffffffffffffffffffffffffff1673ffffffffffffffffffffffffffffffffffffffff16815260200190815260200160002060008473ffffffffffffffffffffffffffffffffffffffff1673ffffffffffffffffffffffffffffffffffffffff16815260200190815260200160002060006101000a81548160ff0219169083151502179055508173ffffffffffffffffffffffffffffffffffffffff168373ffffffffffffffffffffffffffffffffffffffff167f17307eab39ab6107e8899845ad3d59bd9653f200f220920489ca2b5937696c3183604051611d8f9190613748565b60405180910390a3505050565b611da78484846118c6565b611db3848484846120d3565b611df2576040517f08c379a0000000000000000000000000000000000000000000000000000000008152600401611de99061381f565b60405180910390fd5b50505050565b6060611e03826116bb565b611e42576040517f08c379a0000000000000000000000000000000000000000000000000000000008152600401611e39906139bf565b60405180910390fd5b6000600a60008481526020019081526020016000208054611e6290613d7f565b80601f0160208091040260200160405190810160405280929190818152602001828054611e8e90613d7f565b8015611edb5780601f10611eb057610100808354040283529160200191611edb565b820191906000526020600020905b815481529060010190602001808311611ebe57829003601f168201915b505050505090506000611eec61226a565b9050600081511415611f02578192505050611f45565b600082511115611f37578082604051602001611f1f92919061369b565b60405160208183030381529060405292505050611f45565b611f4084612281565b925050505b919050565b60007f80ac58cd000000000000000000000000000000000000000000000000000000007bffffffffffffffffffffffffffffffffffffffffffffffffffffffff1916827bffffffffffffffffffffffffffffffffffffffffffffffffffffffff1916148061201557507f5b5e139f000000000000000000000000000000000000000000000000000000007bffffffffffffffffffffffffffffffffffffffffffffffffffffffff1916827bffffffffffffffffffffffffffffffffffffffffffffffffffffffff1916145b80612025575061202482612328565b5b9050919050565b612037838383612392565b505050565b505050565b61205b8282604051806020016040528060008152506124a6565b5050565b612068826116bb565b6120a7576040517f08c379a000000000000000000000000000000000000000000000000000000000815260040161209e9061395f565b60405180910390fd5b80600a600084815260200190815260200160002090805190602001906120ce929190612c58565b505050565b60006120f48473ffffffffffffffffffffffffffffffffffffffff16612501565b1561225d578373ffffffffffffffffffffffffffffffffffffffff1663150b7a0261211d611727565b8786866040518563ffffffff1660e01b815260040161213f94939291906136da565b602060405180830381600087803b15801561215957600080fd5b505af192505050801561218a57506040513d601f19601f82011682018060405250810190612187919061304e565b60015b61220d573d80600081146121ba576040519150601f19603f3d011682016040523d82523d6000602084013e6121bf565b606091505b50600081511415612205576040517f08c379a00000000000000000000000000000000000000000000000000000000081526004016121fc9061381f565b60405180910390fd5b805181602001fd5b63150b7a0260e01b7bffffffffffffffffffffffffffffffffffffffffffffffffffffffff1916817bffffffffffffffffffffffffffffffffffffffffffffffffffffffff191614915050612262565b600190505b949350505050565b606060405180602001604052806000815250905090565b606061228c826116bb565b6122cb576040517f08c379a00000000000000000000000000000000000000000000000000000000081526004016122c290613a3f565b60405180910390fd5b60006122d561226a565b905060008151116122f55760405180602001604052806000815250612320565b806122ff84612524565b60405160200161231092919061369b565b6040516020818303038152906040525b915050919050565b60007f01ffc9a7000000000000000000000000000000000000000000000000000000007bffffffffffffffffffffffffffffffffffffffffffffffffffffffff1916827bffffffffffffffffffffffffffffffffffffffffffffffffffffffff1916149050919050565b61239d8383836126d1565b600073ffffffffffffffffffffffffffffffffffffffff168373ffffffffffffffffffffffffffffffffffffffff1614156123e0576123db816126d6565b61241f565b8173ffffffffffffffffffffffffffffffffffffffff168373ffffffffffffffffffffffffffffffffffffffff161461241e5761241d838261271f565b5b5b600073ffffffffffffffffffffffffffffffffffffffff168273ffffffffffffffffffffffffffffffffffffffff1614156124625761245d8161288c565b6124a1565b8273ffffffffffffffffffffffffffffffffffffffff168273ffffffffffffffffffffffffffffffffffffffff16146124a05761249f82826129cf565b5b5b505050565b6124b08383612a4e565b6124bd60008484846120d3565b6124fc576040517f08c379a00000000000000000000000000000000000000000000000000000000081526004016124f39061381f565b60405180910390fd5b505050565b6000808273ffffffffffffffffffffffffffffffffffffffff163b119050919050565b6060600082141561256c576040518060400160405280600181526020017f300000000000000000000000000000000000000000000000000000000000000081525090506126cc565b600082905060005b6000821461259e57808061258790613de2565b915050600a826125979190613c64565b9150612574565b60008167ffffffffffffffff8111156125e0577f4e487b7100000000000000000000000000000000000000000000000000000000600052604160045260246000fd5b6040519080825280601f01601f1916602001820160405280156126125781602001600182028036833780820191505090505b5090505b600085146126c55760018261262b9190613c95565b9150600a8561263a9190613e2b565b60306126469190613c0e565b60f81b818381518110612682577f4e487b7100000000000000000000000000000000000000000000000000000000600052603260045260246000fd5b60200101907effffffffffffffffffffffffffffffffffffffffffffffffffffffffffffff1916908160001a905350600a856126be9190613c64565b9450612616565b8093505050505b919050565b505050565b6008805490506009600083815260200190815260200160002081905550600881908060018154018082558091505060019003906000526020600020016000909190919091505550565b6000600161272c84610d3a565b6127369190613c95565b905060006007600084815260200190815260200160002054905081811461281b576000600660008673ffffffffffffffffffffffffffffffffffffffff1673ffffffffffffffffffffffffffffffffffffffff168152602001908152602001600020600084815260200190815260200160002054905080600660008773ffffffffffffffffffffffffffffffffffffffff1673ffffffffffffffffffffffffffffffffffffffff168152602001908152602001600020600084815260200190815260200160002081905550816007600083815260200190815260200160002081905550505b6007600084815260200190815260200160002060009055600660008573ffffffffffffffffffffffffffffffffffffffff1673ffffffffffffffffffffffffffffffffffffffff16815260200190815260200160002060008381526020019081526020016000206000905550505050565b600060016008805490506128a09190613c95565b90506000600960008481526020019081526020016000205490506000600883815481106128f6577f4e487b7100000000000000000000000000000000000000000000000000000000600052603260045260246000fd5b90600052602060002001549050806008838154811061293e577f4e487b7100000000000000000000000000000000000000000000000000000000600052603260045260246000fd5b9060005260206000200181905550816009600083815260200190815260200160002081905550600960008581526020019081526020016000206000905560088054806129b3577f4e487b7100000000000000000000000000000000000000000000000000000000600052603160045260246000fd5b6001900381819060005260206000200160009055905550505050565b60006129da83610d3a565b905081600660008573ffffffffffffffffffffffffffffffffffffffff1673ffffffffffffffffffffffffffffffffffffffff168152602001908152602001600020600083815260200190815260200160002081905550806007600084815260200190815260200160002081905550505050565b600073ffffffffffffffffffffffffffffffffffffffff168273ffffffffffffffffffffffffffffffffffffffff161415612abe576040517f08c379a0000000000000000000000000000000000000000000000000000000008152600401612ab59061399f565b60405180910390fd5b612ac7816116bb565b15612b07576040517f08c379a0000000000000000000000000000000000000000000000000000000008152600401612afe9061387f565b60405180910390fd5b612b136000838361202c565b6001600360008473ffffffffffffffffffffffffffffffffffffffff1673ffffffffffffffffffffffffffffffffffffffff1681526020019081526020016000206000828254612b639190613c0e565b92505081905550816002600083815260200190815260200160002060006101000a81548173ffffffffffffffffffffffffffffffffffffffff021916908373ffffffffffffffffffffffffffffffffffffffff160217905550808273ffffffffffffffffffffffffffffffffffffffff16600073ffffffffffffffffffffffffffffffffffffffff167fddf252ad1be2c89b69c2b068fc378daa952ba7f163c4a11628f55a4df523b3ef60405160405180910390a4612c246000838361203c565b5050565b6040518060400160405280600073ffffffffffffffffffffffffffffffffffffffff168152602001606081525090565b828054612c6490613d7f565b90600052602060002090601f016020900481019282612c865760008555612ccd565b82601f10612c9f57805160ff1916838001178555612ccd565b82800160010185558215612ccd579182015b82811115612ccc578251825591602001919060010190612cb1565b5b509050612cda9190612cde565b5090565b5b80821115612cf7576000816000905550600101612cdf565b5090565b6000612d0e612d0984613b1f565b613afa565b905082815260208101848484011115612d2657600080fd5b612d31848285613d3d565b509392505050565b6000612d4c612d4784613b50565b613afa565b905082815260208101848484011115612d6457600080fd5b612d6f848285613d3d565b509392505050565b600081359050612d8681614561565b92915050565b600081359050612d9b81614578565b92915050565b600081359050612db08161458f565b92915050565b600081519050612dc58161458f565b92915050565b600082601f830112612ddc57600080fd5b8135612dec848260208601612cfb565b91505092915050565b60008083601f840112612e0757600080fd5b8235905067ffffffffffffffff811115612e2057600080fd5b602083019150836001820283011115612e3857600080fd5b9250929050565b600082601f830112612e5057600080fd5b8135612e60848260208601612d39565b91505092915050565b600081359050612e78816145a6565b92915050565b600060208284031215612e9057600080fd5b6000612e9e84828501612d77565b91505092915050565b60008060408385031215612eba57600080fd5b6000612ec885828601612d77565b9250506020612ed985828601612d77565b9150509250929050565b600080600060608486031215612ef857600080fd5b6000612f0686828701612d77565b9350506020612f1786828701612d77565b9250506040612f2886828701612e69565b9150509250925092565b60008060008060808587031215612f4857600080fd5b6000612f5687828801612d77565b9450506020612f6787828801612d77565b9350506040612f7887828801612e69565b925050606085013567ffffffffffffffff811115612f9557600080fd5b612fa187828801612dcb565b91505092959194509250565b60008060408385031215612fc057600080fd5b6000612fce85828601612d77565b9250506020612fdf85828601612d8c565b9150509250929050565b60008060408385031215612ffc57600080fd5b600061300a85828601612d77565b925050602061301b85828601612e69565b9150509250929050565b60006020828403121561303757600080fd5b600061304584828501612da1565b91505092915050565b60006020828403121561306057600080fd5b600061306e84828501612db6565b91505092915050565b60006020828403121561308957600080fd5b600082013567ffffffffffffffff8111156130a357600080fd5b6130af84828501612e3f565b91505092915050565b6000602082840312156130ca57600080fd5b60006130d884828501612e69565b91505092915050565b6000806000604084860312156130f657600080fd5b600061310486828701612e69565b935050602084013567ffffffffffffffff81111561312157600080fd5b61312d86828701612df5565b92509250509250925092565b6000806040838503121561314c57600080fd5b600061315a85828601612e69565b925050602061316b85828601612e69565b9150509250929050565b6000613181838361364f565b905092915050565b61319281613cc9565b82525050565b6131a181613cc9565b82525050565b60006131b282613b91565b6131bc8185613bbf565b9350836020820285016131ce85613b81565b8060005b8581101561320a57848403895281516131eb8582613175565b94506131f683613bb2565b925060208a019950506001810190506131d2565b50829750879550505050505092915050565b61322581613cdb565b82525050565b600061323682613b9c565b6132408185613bd0565b9350613250818560208601613d4c565b61325981613f18565b840191505092915050565b600061326f82613ba7565b6132798185613be1565b9350613289818560208601613d4c565b61329281613f18565b840191505092915050565b60006132a882613ba7565b6132b28185613bf2565b93506132c2818560208601613d4c565b6132cb81613f18565b840191505092915050565b60006132e182613ba7565b6132eb8185613c03565b93506132fb818560208601613d4c565b80840191505092915050565b6000613314601783613bf2565b915061331f82613f29565b602082019050919050565b6000613337602b83613bf2565b915061334282613f52565b604082019050919050565b600061335a603283613bf2565b915061336582613fa1565b604082019050919050565b600061337d602683613bf2565b915061338882613ff0565b604082019050919050565b60006133a0602583613bf2565b91506133ab8261403f565b604082019050919050565b60006133c3601c83613bf2565b91506133ce8261408e565b602082019050919050565b60006133e6602483613bf2565b91506133f1826140b7565b604082019050919050565b6000613409601983613bf2565b915061341482614106565b602082019050919050565b600061342c602c83613bf2565b91506134378261412f565b604082019050919050565b600061344f603883613bf2565b915061345a8261417e565b604082019050919050565b6000613472602a83613bf2565b915061347d826141cd565b604082019050919050565b6000613495602983613bf2565b91506134a08261421c565b604082019050919050565b60006134b8602e83613bf2565b91506134c38261426b565b604082019050919050565b60006134db601883613bf2565b91506134e6826142ba565b602082019050919050565b60006134fe602083613bf2565b9150613509826142e3565b602082019050919050565b6000613521603183613bf2565b915061352c8261430c565b604082019050919050565b6000613544602c83613bf2565b915061354f8261435b565b604082019050919050565b6000613567602083613bf2565b9150613572826143aa565b602082019050919050565b600061358a601883613bf2565b9150613595826143d3565b602082019050919050565b60006135ad602f83613bf2565b91506135b8826143fc565b604082019050919050565b60006135d0601d83613bf2565b91506135db8261444b565b602082019050919050565b60006135f3602183613bf2565b91506135fe82614474565b604082019050919050565b6000613616603183613bf2565b9150613621826144c3565b604082019050919050565b6000613639602c83613bf2565b915061364482614512565b604082019050919050565b60006040830160008301516136676000860182613189565b506020830151848203602086015261367f8282613264565b9150508091505092915050565b61369581613d33565b82525050565b60006136a782856132d6565b91506136b382846132d6565b91508190509392505050565b60006020820190506136d46000830184613198565b92915050565b60006080820190506136ef6000830187613198565b6136fc6020830186613198565b613709604083018561368c565b818103606083015261371b818461322b565b905095945050505050565b6000602082019050818103600083015261374081846131a7565b905092915050565b600060208201905061375d600083018461321c565b92915050565b6000602082019050818103600083015261377d818461329d565b905092915050565b600060a082019050818103600083015261379f818861329d565b90506137ae6020830187613198565b6137bb604083018661368c565b6137c8606083018561368c565b6137d5608083018461368c565b9695505050505050565b600060208201905081810360008301526137f881613307565b9050919050565b600060208201905081810360008301526138188161332a565b9050919050565b600060208201905081810360008301526138388161334d565b9050919050565b6000602082019050818103600083015261385881613370565b9050919050565b6000602082019050818103600083015261387881613393565b9050919050565b60006020820190508181036000830152613898816133b6565b9050919050565b600060208201905081810360008301526138b8816133d9565b9050919050565b600060208201905081810360008301526138d8816133fc565b9050919050565b600060208201905081810360008301526138f88161341f565b9050919050565b6000602082019050818103600083015261391881613442565b9050919050565b6000602082019050818103600083015261393881613465565b9050919050565b6000602082019050818103600083015261395881613488565b9050919050565b60006020820190508181036000830152613978816134ab565b9050919050565b60006020820190508181036000830152613998816134ce565b9050919050565b600060208201905081810360008301526139b8816134f1565b9050919050565b600060208201905081810360008301526139d881613514565b9050919050565b600060208201905081810360008301526139f881613537565b9050919050565b60006020820190508181036000830152613a188161355a565b9050919050565b60006020820190508181036000830152613a388161357d565b9050919050565b60006020820190508181036000830152613a58816135a0565b9050919050565b60006020820190508181036000830152613a78816135c3565b9050919050565b60006020820190508181036000830152613a98816135e6565b9050919050565b60006020820190508181036000830152613ab881613609565b9050919050565b60006020820190508181036000830152613ad88161362c565b9050919050565b6000602082019050613af4600083018461368c565b92915050565b6000613b04613b15565b9050613b108282613db1565b919050565b6000604051905090565b600067ffffffffffffffff821115613b3a57613b39613ee9565b5b613b4382613f18565b9050602081019050919050565b600067ffffffffffffffff821115613b6b57613b6a613ee9565b5b613b7482613f18565b9050602081019050919050565b6000819050602082019050919050565b600081519050919050565b600081519050919050565b600081519050919050565b6000602082019050919050565b600082825260208201905092915050565b600082825260208201905092915050565b600082825260208201905092915050565b600082825260208201905092915050565b600081905092915050565b6000613c1982613d33565b9150613c2483613d33565b9250827fffffffffffffffffffffffffffffffffffffffffffffffffffffffffffffffff03821115613c5957613c58613e5c565b5b828201905092915050565b6000613c6f82613d33565b9150613c7a83613d33565b925082613c8a57613c89613e8b565b5b828204905092915050565b6000613ca082613d33565b9150613cab83613d33565b925082821015613cbe57613cbd613e5c565b5b828203905092915050565b6000613cd482613d13565b9050919050565b60008115159050919050565b60007fffffffff0000000000000000000000000000000000000000000000000000000082169050919050565b600073ffffffffffffffffffffffffffffffffffffffff82169050919050565b6000819050919050565b82818337600083830152505050565b60005b83811015613d6a578082015181840152602081019050613d4f565b83811115613d79576000848401525b50505050565b60006002820490506001821680613d9757607f821691505b60208210811415613dab57613daa613eba565b5b50919050565b613dba82613f18565b810181811067ffffffffffffffff82111715613dd957613dd8613ee9565b5b80604052505050565b6000613ded82613d33565b91507fffffffffffffffffffffffffffffffffffffffffffffffffffffffffffffffff821415613e2057613e1f613e5c565b5b600182019050919050565b6000613e3682613d33565b9150613e4183613d33565b925082613e5157613e50613e8b565b5b828206905092915050565b7f4e487b7100000000000000000000000000000000000000000000000000000000600052601160045260246000fd5b7f4e487b7100000000000000000000000000000000000000000000000000000000600052601260045260246000fd5b7f4e487b7100000000000000000000000000000000000000000000000000000000600052602260045260246000fd5b7f4e487b7100000000000000000000000000000000000000000000000000000000600052604160045260246000fd5b6000601f19601f8301169050919050565b7f456e74657220612076616c696420746f6b656e20757269000000000000000000600082015250565b7f455243373231456e756d657261626c653a206f776e657220696e646578206f7560008201527f74206f6620626f756e6473000000000000000000000000000000000000000000602082015250565b7f4552433732313a207472616e7366657220746f206e6f6e20455243373231526560008201527f63656976657220696d706c656d656e7465720000000000000000000000000000602082015250565b7f4f776e61626c653a206e6577206f776e657220697320746865207a65726f206160008201527f6464726573730000000000000000000000000000000000000000000000000000602082015250565b7f4552433732313a207472616e736665722066726f6d20696e636f72726563742060008201527f6f776e6572000000000000000000000000000000000000000000000000000000602082015250565b7f4552433732313a20746f6b656e20616c7265616479206d696e74656400000000600082015250565b7f4552433732313a207472616e7366657220746f20746865207a65726f2061646460008201527f7265737300000000000000000000000000000000000000000000000000000000602082015250565b7f4552433732313a20617070726f766520746f2063616c6c657200000000000000600082015250565b7f4552433732313a206f70657261746f7220717565727920666f72206e6f6e657860008201527f697374656e7420746f6b656e0000000000000000000000000000000000000000602082015250565b7f4552433732313a20617070726f76652063616c6c6572206973206e6f74206f7760008201527f6e6572206e6f7220617070726f76656420666f7220616c6c0000000000000000602082015250565b7f4552433732313a2062616c616e636520717565727920666f7220746865207a6560008201527f726f206164647265737300000000000000000000000000000000000000000000602082015250565b7f4552433732313a206f776e657220717565727920666f72206e6f6e657869737460008201527f656e7420746f6b656e0000000000000000000000000000000000000000000000602082015250565b7f45524337323155524953746f726167653a2055524920736574206f66206e6f6e60008201527f6578697374656e7420746f6b656e000000000000000000000000000000000000602082015250565b7f496e76616c696420746f6b656e20494420656e74657265640000000000000000600082015250565b7f4552433732313a206d696e7420746f20746865207a65726f2061646472657373600082015250565b7f45524337323155524953746f726167653a2055524920717565727920666f722060008201527f6e6f6e6578697374656e7420746f6b656e000000000000000000000000000000602082015250565b7f4552433732313a20617070726f76656420717565727920666f72206e6f6e657860008201527f697374656e7420746f6b656e0000000000000000000000000000000000000000602082015250565b7f4f776e61626c653a2063616c6c6572206973206e6f7420746865206f776e6572600082015250565b7f496e76616c6964207265616374696f6e20656e74657265640000000000000000600082015250565b7f4552433732314d657461646174613a2055524920717565727920666f72206e6f60008201527f6e6578697374656e7420746f6b656e0000000000000000000000000000000000602082015250565b7f416c7265616479207265616374656420746f207468697320746f6b656e000000600082015250565b7f4552433732313a20617070726f76616c20746f2063757272656e74206f776e6560008201527f7200000000000000000000000000000000000000000000000000000000000000602082015250565b7f4552433732313a207472616e736665722063616c6c6572206973206e6f74206f60008201527f776e6572206e6f7220617070726f766564000000000000000000000000000000602082015250565b7f455243373231456e756d657261626c653a20676c6f62616c20696e646578206f60008201527f7574206f6620626f756e64730000000000000000000000000000000000000000602082015250565b61456a81613cc9565b811461457557600080fd5b50565b61458181613cdb565b811461458c57600080fd5b50565b61459881613ce7565b81146145a357600080fd5b50565b6145af81613d33565b81146145ba57600080fd5b5056fea264697066735822122086f08cf25420c68e9fa6e70f070a15de56b7f5a5fd872de950a7cb5fedfef7b664736f6c63430008040033",
  "linkReferences": {},
  "deployedLinkReferences": {}
}